{
  "_format": "hh-sol-artifact-1",
  "contractName": "DroneRegistry",
  "sourceName": "contracts/drone_registry.sol",
  "abi": [
    {
      "anonymous": false,
      "inputs": [
        {
          "indexed": true,
          "internalType": "string",
          "name": "did",
          "type": "string"
        },
        {
          "indexed": false,
          "internalType": "string",
          "name": "model",
          "type": "string"
        },
        {
          "indexed": false,
          "internalType": "string",
          "name": "operator",
          "type": "string"
        },
        {
          "indexed": false,
          "internalType": "bool",
          "name": "isRegistered",
          "type": "bool"
        }
      ],
      "name": "DroneFetched",
      "type": "event"
    },
    {
      "anonymous": false,
      "inputs": [
        {
          "indexed": true,
          "internalType": "string",
          "name": "did",
          "type": "string"
        },
        {
          "indexed": false,
          "internalType": "string",
          "name": "model",
          "type": "string"
        },
        {
          "indexed": false,
          "internalType": "string",
          "name": "operator",
          "type": "string"
        }
      ],
      "name": "DroneRegistered",
      "type": "event"
    },
    {
      "inputs": [],
      "name": "getAllDrones",
      "outputs": [
        {
          "components": [
            {
              "internalType": "string",
              "name": "did",
              "type": "string"
            },
            {
              "internalType": "string",
              "name": "model",
              "type": "string"
            },
            {
              "internalType": "string",
              "name": "operator",
              "type": "string"
            },
            {
              "internalType": "bool",
              "name": "isRegistered",
              "type": "bool"
            }
          ],
          "internalType": "struct DroneRegistry.Drone[]",
          "name": "",
          "type": "tuple[]"
        }
      ],
      "stateMutability": "view",
      "type": "function"
    },
    {
      "inputs": [
        {
          "internalType": "string",
          "name": "_did",
          "type": "string"
        }
      ],
      "name": "getDrone",
      "outputs": [
        {
          "internalType": "string",
          "name": "",
          "type": "string"
        },
        {
          "internalType": "string",
          "name": "",
          "type": "string"
        },
        {
          "internalType": "string",
          "name": "",
          "type": "string"
        },
        {
          "internalType": "bool",
          "name": "",
          "type": "bool"
        }
      ],
      "stateMutability": "view",
      "type": "function"
    },
    {
      "inputs": [
        {
          "internalType": "string",
          "name": "_did",
          "type": "string"
        },
        {
          "internalType": "string",
          "name": "_model",
          "type": "string"
        },
        {
          "internalType": "string",
          "name": "_operator",
          "type": "string"
        }
      ],
      "name": "registerDrone",
      "outputs": [
        {
          "internalType": "bool",
          "name": "",
          "type": "bool"
        }
      ],
      "stateMutability": "nonpayable",
      "type": "function"
    }
  ],
  "bytecode": "0x608060405234801561001057600080fd5b50611211806100206000396000f3fe608060405234801561001057600080fd5b50600436106100415760003560e01c80631c8b650c146100465780636817ac34146100645780639d0795ae14610097575b600080fd5b61004e6100c7565b60405161005b919061099f565b60405180910390f35b61007e60048036038101906100799190610b0a565b610380565b60405161008e9493929190610bac565b60405180910390f35b6100b160048036038101906100ac9190610c06565b6105f0565b6040516100be9190610cad565b60405180910390f35b6060600060018054905067ffffffffffffffff8111156100ea576100e96109df565b5b60405190808252806020026020018201604052801561012357816020015b610110610797565b8152602001906001900390816101085790505b50905060005b6001805490508110156103785760006001828154811061014c5761014b610cc8565b5b906000526020600020016040516101639190610dfa565b908152602001604051809103902060405180608001604052908160008201805461018c90610d26565b80601f01602080910402602001604051908101604052809291908181526020018280546101b890610d26565b80156102055780601f106101da57610100808354040283529160200191610205565b820191906000526020600020905b8154815290600101906020018083116101e857829003601f168201915b5050505050815260200160018201805461021e90610d26565b80601f016020809104026020016040519081016040528092919081815260200182805461024a90610d26565b80156102975780601f1061026c57610100808354040283529160200191610297565b820191906000526020600020905b81548152906001019060200180831161027a57829003601f168201915b505050505081526020016002820180546102b090610d26565b80601f01602080910402602001604051908101604052809291908181526020018280546102dc90610d26565b80156103295780601f106102fe57610100808354040283529160200191610329565b820191906000526020600020905b81548152906001019060200180831161030c57829003601f168201915b505050505081526020016003820160009054906101000a900460ff1615151515815250508282815181106103605761035f610cc8565b5b60200260200101819052508080600101915050610129565b508091505090565b60608060606000806000866040516103989190610e42565b90815260200160405180910390206040518060800160405290816000820180546103c190610d26565b80601f01602080910402602001604051908101604052809291908181526020018280546103ed90610d26565b801561043a5780601f1061040f5761010080835404028352916020019161043a565b820191906000526020600020905b81548152906001019060200180831161041d57829003601f168201915b5050505050815260200160018201805461045390610d26565b80601f016020809104026020016040519081016040528092919081815260200182805461047f90610d26565b80156104cc5780601f106104a1576101008083540402835291602001916104cc565b820191906000526020600020905b8154815290600101906020018083116104af57829003601f168201915b505050505081526020016002820180546104e590610d26565b80601f016020809104026020016040519081016040528092919081815260200182805461051190610d26565b801561055e5780601f106105335761010080835404028352916020019161055e565b820191906000526020600020905b81548152906001019060200180831161054157829003601f168201915b505050505081526020016003820160009054906101000a900460ff16151515158152505090506000816000015151036105cc576040517f08c379a00000000000000000000000000000000000000000000000000000000081526004016105c390610ea5565b60405180910390fd5b80600001518160200151826040015183606001519450945094509450509193509193565b6000806000856040516106039190610e42565b9081526020016040518091039020600001805461061f90610d26565b905014610661576040517f08c379a000000000000000000000000000000000000000000000000000000000815260040161065890610f11565b60405180910390fd5b6040518060800160405280858152602001848152602001838152602001600115158152506000856040516106959190610e42565b908152602001604051809103902060008201518160000190816106b891906110d2565b5060208201518160010190816106ce91906110d2565b5060408201518160020190816106e491906110d2565b5060608201518160030160006101000a81548160ff02191690831515021790555090505060018490806001815401808255809150506001900390600052602060002001600090919091909150908161073c91906110d2565b508360405161074b9190610e42565b60405180910390207f6856546034c4f3810e769b9775978109f6814f95a004dc483b88ee0812a16d2a84846040516107849291906111a4565b60405180910390a2600190509392505050565b60405180608001604052806060815260200160608152602001606081526020016000151581525090565b600081519050919050565b600082825260208201905092915050565b6000819050602082019050919050565b600081519050919050565b600082825260208201905092915050565b60005b8381101561082757808201518184015260208101905061080c565b60008484015250505050565b6000601f19601f8301169050919050565b600061084f826107ed565b61085981856107f8565b9350610869818560208601610809565b61087281610833565b840191505092915050565b60008115159050919050565b6108928161087d565b82525050565b600060808301600083015184820360008601526108b58282610844565b915050602083015184820360208601526108cf8282610844565b915050604083015184820360408601526108e98282610844565b91505060608301516108fe6060860182610889565b508091505092915050565b60006109158383610898565b905092915050565b6000602082019050919050565b6000610935826107c1565b61093f81856107cc565b935083602082028501610951856107dd565b8060005b8581101561098d578484038952815161096e8582610909565b94506109798361091d565b925060208a01995050600181019050610955565b50829750879550505050505092915050565b600060208201905081810360008301526109b9818461092a565b905092915050565b6000604051905090565b600080fd5b600080fd5b600080fd5b600080fd5b7f4e487b7100000000000000000000000000000000000000000000000000000000600052604160045260246000fd5b610a1782610833565b810181811067ffffffffffffffff82111715610a3657610a356109df565b5b80604052505050565b6000610a496109c1565b9050610a558282610a0e565b919050565b600067ffffffffffffffff821115610a7557610a746109df565b5b610a7e82610833565b9050602081019050919050565b82818337600083830152505050565b6000610aad610aa884610a5a565b610a3f565b905082815260208101848484011115610ac957610ac86109da565b5b610ad4848285610a8b565b509392505050565b600082601f830112610af157610af06109d5565b5b8135610b01848260208601610a9a565b91505092915050565b600060208284031215610b2057610b1f6109cb565b5b600082013567ffffffffffffffff811115610b3e57610b3d6109d0565b5b610b4a84828501610adc565b91505092915050565b600082825260208201905092915050565b6000610b6f826107ed565b610b798185610b53565b9350610b89818560208601610809565b610b9281610833565b840191505092915050565b610ba68161087d565b82525050565b60006080820190508181036000830152610bc68187610b64565b90508181036020830152610bda8186610b64565b90508181036040830152610bee8185610b64565b9050610bfd6060830184610b9d565b95945050505050565b600080600060608486031215610c1f57610c1e6109cb565b5b600084013567ffffffffffffffff811115610c3d57610c3c6109d0565b5b610c4986828701610adc565b935050602084013567ffffffffffffffff811115610c6a57610c696109d0565b5b610c7686828701610adc565b925050604084013567ffffffffffffffff811115610c9757610c966109d0565b5b610ca386828701610adc565b9150509250925092565b6000602082019050610cc26000830184610b9d565b92915050565b7f4e487b7100000000000000000000000000000000000000000000000000000000600052603260045260246000fd5b7f4e487b7100000000000000000000000000000000000000000000000000000000600052602260045260246000fd5b60006002820490506001821680610d3e57607f821691505b602082108103610d5157610d50610cf7565b5b50919050565b600081905092915050565b60008190508160005260206000209050919050565b60008154610d8481610d26565b610d8e8186610d57565b94506001821660008114610da95760018114610dbe57610df1565b60ff1983168652811515820286019350610df1565b610dc785610d62565b60005b83811015610de957815481890152600182019150602081019050610dca565b838801955050505b50505092915050565b6000610e068284610d77565b915081905092915050565b6000610e1c826107ed565b610e268185610d57565b9350610e36818560208601610809565b80840191505092915050565b6000610e4e8284610e11565b915081905092915050565b7f44726f6e65206e6f7420666f756e640000000000000000000000000000000000600082015250565b6000610e8f600f83610b53565b9150610e9a82610e59565b602082019050919050565b60006020820190508181036000830152610ebe81610e82565b9050919050565b7f44726f6e6520616c726561647920726567697374657265640000000000000000600082015250565b6000610efb601883610b53565b9150610f0682610ec5565b602082019050919050565b60006020820190508181036000830152610f2a81610eee565b9050919050565b60006020601f8301049050919050565b600082821b905092915050565b600060088302610f7e7fffffffffffffffffffffffffffffffffffffffffffffffffffffffffffffffff82610f41565b610f888683610f41565b95508019841693508086168417925050509392505050565b6000819050919050565b6000819050919050565b6000610fcf610fca610fc584610fa0565b610faa565b610fa0565b9050919050565b6000819050919050565b610fe983610fb4565b610ffd610ff582610fd6565b848454610f4e565b825550505050565b600090565b611012611005565b61101d818484610fe0565b505050565b5b818110156110415761103660008261100a565b600181019050611023565b5050565b601f8211156110865761105781610d62565b61106084610f31565b8101602085101561106f578190505b61108361107b85610f31565b830182611022565b50505b505050565b600082821c905092915050565b60006110a96000198460080261108b565b1980831691505092915050565b60006110c28383611098565b9150826002028217905092915050565b6110db826107ed565b67ffffffffffffffff8111156110f4576110f36109df565b5b6110fe8254610d26565b611109828285611045565b600060209050601f83116001811461113c576000841561112a578287015190505b61113485826110b6565b86555061119c565b601f19841661114a86610d62565b60005b828110156111725784890151825560018201915060208501945060208101905061114d565b8683101561118f578489015161118b601f891682611098565b8355505b6001600288020188555050505b505050505050565b600060408201905081810360008301526111be8185610b64565b905081810360208301526111d28184610b64565b9050939250505056fea264697066735822122057349cadb3bc0306f8ff0bd9d845a76082542f4129083f108ee05c9ddad595b464736f6c63430008180033",
  "linkReferences": {},
  "deployedLinkReferences": {}
}